{
  "_format": "hh-sol-artifact-1",
  "contractName": "Lottery",
  "sourceName": "contracts/Lottery.sol",
  "abi": [
    {
      "inputs": [
        {
          "internalType": "string",
          "name": "tokenName",
          "type": "string"
        },
        {
          "internalType": "string",
          "name": "tokenSymbol",
          "type": "string"
        },
        {
          "internalType": "uint256",
          "name": "_purchaseRatio",
          "type": "uint256"
        },
        {
          "internalType": "uint256",
          "name": "_betPrice",
          "type": "uint256"
        },
        {
          "internalType": "uint256",
          "name": "_betFee",
          "type": "uint256"
        }
      ],
      "stateMutability": "nonpayable",
      "type": "constructor"
    },
    {
      "anonymous": false,
      "inputs": [
        {
          "indexed": true,
          "internalType": "address",
          "name": "previousOwner",
          "type": "address"
        },
        {
          "indexed": true,
          "internalType": "address",
          "name": "newOwner",
          "type": "address"
        }
      ],
      "name": "OwnershipTransferred",
      "type": "event"
    },
    {
      "inputs": [],
      "name": "bet",
      "outputs": [],
      "stateMutability": "nonpayable",
      "type": "function"
    },
    {
      "inputs": [],
      "name": "betFee",
      "outputs": [
        {
          "internalType": "uint256",
          "name": "",
          "type": "uint256"
        }
      ],
      "stateMutability": "view",
      "type": "function"
    },
    {
      "inputs": [
        {
          "internalType": "uint256",
          "name": "times",
          "type": "uint256"
        }
      ],
      "name": "betMany",
      "outputs": [],
      "stateMutability": "nonpayable",
      "type": "function"
    },
    {
      "inputs": [],
      "name": "betPrice",
      "outputs": [
        {
          "internalType": "uint256",
          "name": "",
          "type": "uint256"
        }
      ],
      "stateMutability": "view",
      "type": "function"
    },
    {
      "inputs": [],
      "name": "betsClosingTime",
      "outputs": [
        {
          "internalType": "uint256",
          "name": "",
          "type": "uint256"
        }
      ],
      "stateMutability": "view",
      "type": "function"
    },
    {
      "inputs": [],
      "name": "betsOpen",
      "outputs": [
        {
          "internalType": "bool",
          "name": "",
          "type": "bool"
        }
      ],
      "stateMutability": "view",
      "type": "function"
    },
    {
      "inputs": [],
      "name": "closeLottery",
      "outputs": [],
      "stateMutability": "nonpayable",
      "type": "function"
    },
    {
      "inputs": [],
      "name": "getRandomNumber",
      "outputs": [
        {
          "internalType": "uint256",
          "name": "randomNumber",
          "type": "uint256"
        }
      ],
      "stateMutability": "view",
      "type": "function"
    },
    {
      "inputs": [
        {
          "internalType": "uint256",
          "name": "closingTime",
          "type": "uint256"
        }
      ],
      "name": "openBets",
      "outputs": [],
      "stateMutability": "nonpayable",
      "type": "function"
    },
    {
      "inputs": [],
      "name": "owner",
      "outputs": [
        {
          "internalType": "address",
          "name": "",
          "type": "address"
        }
      ],
      "stateMutability": "view",
      "type": "function"
    },
    {
      "inputs": [],
      "name": "ownerPool",
      "outputs": [
        {
          "internalType": "uint256",
          "name": "",
          "type": "uint256"
        }
      ],
      "stateMutability": "view",
      "type": "function"
    },
    {
      "inputs": [
        {
          "internalType": "uint256",
          "name": "amount",
          "type": "uint256"
        }
      ],
      "name": "ownerWithdraw",
      "outputs": [],
      "stateMutability": "nonpayable",
      "type": "function"
    },
    {
      "inputs": [],
      "name": "paymentToken",
      "outputs": [
        {
          "internalType": "contract LotteryToken",
          "name": "",
          "type": "address"
        }
      ],
      "stateMutability": "view",
      "type": "function"
    },
    {
      "inputs": [
        {
          "internalType": "address",
          "name": "",
          "type": "address"
        }
      ],
      "name": "prize",
      "outputs": [
        {
          "internalType": "uint256",
          "name": "",
          "type": "uint256"
        }
      ],
      "stateMutability": "view",
      "type": "function"
    },
    {
      "inputs": [],
      "name": "prizePool",
      "outputs": [
        {
          "internalType": "uint256",
          "name": "",
          "type": "uint256"
        }
      ],
      "stateMutability": "view",
      "type": "function"
    },
    {
      "inputs": [
        {
          "internalType": "uint256",
          "name": "amount",
          "type": "uint256"
        }
      ],
      "name": "prizeWithdraw",
      "outputs": [],
      "stateMutability": "nonpayable",
      "type": "function"
    },
    {
      "inputs": [],
      "name": "purchaseRatio",
      "outputs": [
        {
          "internalType": "uint256",
          "name": "",
          "type": "uint256"
        }
      ],
      "stateMutability": "view",
      "type": "function"
    },
    {
      "inputs": [],
      "name": "purchaseTokens",
      "outputs": [],
      "stateMutability": "payable",
      "type": "function"
    },
    {
      "inputs": [],
      "name": "renounceOwnership",
      "outputs": [],
      "stateMutability": "nonpayable",
      "type": "function"
    },
    {
      "inputs": [
        {
          "internalType": "uint256",
          "name": "amount",
          "type": "uint256"
        }
      ],
      "name": "returnTokens",
      "outputs": [],
      "stateMutability": "nonpayable",
      "type": "function"
    },
    {
      "inputs": [
        {
          "internalType": "address",
          "name": "newOwner",
          "type": "address"
        }
      ],
      "name": "transferOwnership",
      "outputs": [],
      "stateMutability": "nonpayable",
      "type": "function"
    }
  ],
  "bytecode": "0x60806040523480156200001157600080fd5b50604051620023ef380380620023ef8339810160408190526200003491620001e7565b6200003f33620000af565b84846040516200004f90620000ff565b6200005c9291906200029a565b604051809103906000f08015801562000079573d6000803e3d6000fd5b50600180546001600160a01b0319166001600160a01b039290921691909117905560029290925560035560045550620002cc9050565b600080546001600160a01b038381166001600160a01b0319831681178455604051919092169283917f8be0079c531659141344cd1fd0a4f28419497f9722a3daafe3b4186f6b6457e09190a35050565b6114bb8062000f3483390190565b634e487b7160e01b600052604160045260246000fd5b60005b838110156200014057818101518382015260200162000126565b8381111562000150576000848401525b50505050565b600082601f8301126200016857600080fd5b81516001600160401b03808211156200018557620001856200010d565b604051601f8301601f19908116603f01168101908282118183101715620001b057620001b06200010d565b81604052838152866020858801011115620001ca57600080fd5b620001dd84602083016020890162000123565b9695505050505050565b600080600080600060a086880312156200020057600080fd5b85516001600160401b03808211156200021857600080fd5b6200022689838a0162000156565b965060208801519150808211156200023d57600080fd5b506200024c8882890162000156565b60408801516060890151608090990151979a919950979695509350505050565b600081518084526200028681602086016020860162000123565b601f01601f19169290920160200192915050565b604081526000620002af60408301856200026c565b8281036020840152620002c381856200026c565b95945050505050565b610c5880620002dc6000396000f3fe6080604052600436106100fa5760003560e01c806311610c25146100ff57806318c34965146101165780632b65e0401461013f5780633013ce29146101555780633290ce291461018d57806333f707d1146101955780633ae1786f146101b55780633cc121e6146101d55780636fd09816146101f5578063715018a61461020a578063719ce73e1461021f578063729e91e914610235578063841e6ce9146102555780638adf9c1f1461026b5780638da5cb5b1461029857806395cadc47146102ad578063990a49f5146102c3578063cfd8a175146102e3578063d1b258ff146102f9578063dbdff2c114610323578063f2fde38b14610336575b600080fd5b34801561010b57600080fd5b50610114610356565b005b34801561012257600080fd5b5061012c60085481565b6040519081526020015b60405180910390f35b34801561014b57600080fd5b5061012c60065481565b34801561016157600080fd5b50600154610175906001600160a01b031681565b6040516001600160a01b039091168152602001610136565b6101146104da565b3480156101a157600080fd5b506101146101b0366004610acf565b61054f565b3480156101c157600080fd5b506101146101d0366004610acf565b610644565b3480156101e157600080fd5b506101146101f0366004610acf565b6106e3565b34801561020157600080fd5b50610114610754565b34801561021657600080fd5b5061011461086f565b34801561022b57600080fd5b5061012c60055481565b34801561024157600080fd5b50610114610250366004610acf565b610883565b34801561026157600080fd5b5061012c60045481565b34801561027757600080fd5b5061012c610286366004610ae8565b60096020526000908152604090205481565b3480156102a457600080fd5b506101756108b0565b3480156102b957600080fd5b5061012c60025481565b3480156102cf57600080fd5b506101146102de366004610acf565b6108bf565b3480156102ef57600080fd5b5061012c60035481565b34801561030557600080fd5b506007546103139060ff1681565b6040519015158152602001610136565b34801561032f57600080fd5b504461012c565b34801561034257600080fd5b50610114610351366004610ae8565b610978565b60075460ff168015610369575060085442105b6103ae5760405162461bcd60e51b8152602060048201526011602482015270131bdd1d195c9e481a5cc818db1bdcd959607a1b60448201526064015b60405180910390fd5b600454600660008282546103c29190610b2e565b9091555050600354600580546000906103dc908490610b2e565b9091555050600a8054600181810183556000929092527fc65a7bb8d6351c1cf70c95a316cc6a92839c986682d98bc35f958f4883f9d2a80180546001600160a01b0319163390811790915590546004546003546001600160a01b0392909216926323b872dd92909130916104509190610b2e565b6040516001600160e01b031960e086901b1681526001600160a01b0393841660048201529290911660248301526044820152606401602060405180830381600087803b15801561049f57600080fd5b505af11580156104b3573d6000803e3d6000fd5b505050506040513d601f19601f820116820180604052508101906104d79190610b46565b50565b6001546002546001600160a01b03909116906340c10f199033906104fe9034610b68565b6040518363ffffffff1660e01b815260040161051b929190610b87565b600060405180830381600087803b15801561053557600080fd5b505af1158015610549573d6000803e3d6000fd5b50505050565b6105576109ee565b6006548111156105a55760405162461bcd60e51b8152602060048201526019602482015278139bdd08195b9bdd59da081999595cc818dbdb1b1958dd1959603a1b60448201526064016103a5565b80600660008282546105b79190610ba0565b909155505060015460405163a9059cbb60e01b81526001600160a01b039091169063a9059cbb906105ee9033908590600401610b87565b602060405180830381600087803b15801561060857600080fd5b505af115801561061c573d6000803e3d6000fd5b505050506040513d601f19601f820116820180604052508101906106409190610b46565b5050565b60015460405163079cc67960e41b81526001600160a01b03909116906379cc6790906106769033908590600401610b87565b600060405180830381600087803b15801561069057600080fd5b505af11580156106a4573d6000803e3d6000fd5b50506002543392506108fc91506106bb9084610bcd565b6040518115909202916000818181858888f19350505050158015610640573d6000803e3d6000fd5b336000908152600960205260409020548111156107355760405162461bcd60e51b815260206004820152601060248201526f4e6f7420656e6f756768207072697a6560801b60448201526064016103a5565b33600090815260096020526040812080548392906105b7908490610ba0565b60085442101561079a5760405162461bcd60e51b8152602060048201526011602482015270546f6f20736f6f6e20746f20636c6f736560781b60448201526064016103a5565b60075460ff166107dd5760405162461bcd60e51b815260206004820152600e60248201526d105b1c9958591e4818db1bdcd95960921b60448201526064016103a5565b600a541561086357600a546000906107f59044610be1565b90506000600a828154811061080c5761080c610bf5565b60009182526020808320909101546005546001600160a01b03909116808452600990925260408320805492945090929091610848908490610b2e565b90915550506000600581905561086090600a90610a9d565b50505b6007805460ff19169055565b6108776109ee565b6108816000610a4d565b565b6000811161089057600080fd5b80156104d75761089e610356565b806108a881610c0b565b915050610890565b6000546001600160a01b031690565b6108c76109ee565b60075460ff161561090c5760405162461bcd60e51b815260206004820152600f60248201526e2637ba3a32b93c9034b99037b832b760891b60448201526064016103a5565b4281116109665760405162461bcd60e51b815260206004820152602260248201527f436c6f73696e672074696d65206d75737420626520696e207468652066757475604482015261726560f01b60648201526084016103a5565b6008556007805460ff19166001179055565b6109806109ee565b6001600160a01b0381166109e55760405162461bcd60e51b815260206004820152602660248201527f4f776e61626c653a206e6577206f776e657220697320746865207a65726f206160448201526564647265737360d01b60648201526084016103a5565b6104d781610a4d565b336109f76108b0565b6001600160a01b0316146108815760405162461bcd60e51b815260206004820181905260248201527f4f776e61626c653a2063616c6c6572206973206e6f7420746865206f776e657260448201526064016103a5565b600080546001600160a01b038381166001600160a01b0319831681178455604051919092169283917f8be0079c531659141344cd1fd0a4f28419497f9722a3daafe3b4186f6b6457e09190a35050565b50805460008255906000526020600020908101906104d791905b80821115610acb5760008155600101610ab7565b5090565b600060208284031215610ae157600080fd5b5035919050565b600060208284031215610afa57600080fd5b81356001600160a01b0381168114610b1157600080fd5b9392505050565b634e487b7160e01b600052601160045260246000fd5b60008219821115610b4157610b41610b18565b500190565b600060208284031215610b5857600080fd5b81518015158114610b1157600080fd5b6000816000190483118215151615610b8257610b82610b18565b500290565b6001600160a01b03929092168252602082015260400190565b600082821015610bb257610bb2610b18565b500390565b634e487b7160e01b600052601260045260246000fd5b600082610bdc57610bdc610bb7565b500490565b600082610bf057610bf0610bb7565b500690565b634e487b7160e01b600052603260045260246000fd5b600081610c1a57610c1a610b18565b50600019019056fea26469706673582212205858bfb519c5a97d5ff613f2c565e8360f42d9fde29ffc0a383bd298ea0a0df264736f6c6343000809003360806040523480156200001157600080fd5b50604051620014bb380380620014bb8339810160408190526200003491620002c1565b8151829082906200004d9060039060208501906200014e565b508051620000639060049060208401906200014e565b506200007591506000905033620000a9565b620000a17f9f2df0fed2c77648de5860a4cc508cd0818c85b8b8a1ab4ceeef8d981c8956a633620000a9565b505062000368565b60008281526005602090815260408083206001600160a01b038516845290915290205460ff166200014a5760008281526005602090815260408083206001600160a01b03851684529091529020805460ff19166001179055620001093390565b6001600160a01b0316816001600160a01b0316837f2f8788117e7eff1d82e926ec794901d17c78024a50270940304540a733656f0d60405160405180910390a45b5050565b8280546200015c906200032b565b90600052602060002090601f016020900481019282620001805760008555620001cb565b82601f106200019b57805160ff1916838001178555620001cb565b82800160010185558215620001cb579182015b82811115620001cb578251825591602001919060010190620001ae565b50620001d9929150620001dd565b5090565b5b80821115620001d95760008155600101620001de565b634e487b7160e01b600052604160045260246000fd5b600082601f8301126200021c57600080fd5b81516001600160401b0380821115620002395762000239620001f4565b604051601f8301601f19908116603f01168101908282118183101715620002645762000264620001f4565b816040528381526020925086838588010111156200028157600080fd5b600091505b83821015620002a5578582018301518183018401529082019062000286565b83821115620002b75760008385830101525b9695505050505050565b60008060408385031215620002d557600080fd5b82516001600160401b0380821115620002ed57600080fd5b620002fb868387016200020a565b935060208501519150808211156200031257600080fd5b5062000321858286016200020a565b9150509250929050565b600181811c908216806200034057607f821691505b602082108114156200036257634e487b7160e01b600052602260045260246000fd5b50919050565b61114380620003786000396000f3fe608060405234801561001057600080fd5b50600436106101125760003560e01c806301ffc9a71461011757806306fdde031461013f578063095ea7b31461015457806318160ddd1461016757806323b872dd14610179578063248a9ca31461018c5780632f2ff15d1461019f578063313ce567146101b457806336568abe146101c357806339509351146101d657806340c10f19146101e957806342966c68146101fc57806370a082311461020f57806379cc67901461023857806391d148541461024b57806395d89b411461025e578063a217fddf14610266578063a457c2d71461026e578063a9059cbb14610281578063d539139314610294578063d547741f146102a9578063dd62ed3e146102bc575b600080fd5b61012a610125366004610dfe565b6102cf565b60405190151581526020015b60405180910390f35b610147610306565b6040516101369190610e54565b61012a610162366004610ea3565b610398565b6002545b604051908152602001610136565b61012a610187366004610ecd565b6103b0565b61016b61019a366004610f09565b6103d4565b6101b26101ad366004610f22565b6103e9565b005b60405160128152602001610136565b6101b26101d1366004610f22565b61040a565b61012a6101e4366004610ea3565b61048d565b6101b26101f7366004610ea3565b6104af565b6101b261020a366004610f09565b6104d1565b61016b61021d366004610f4e565b6001600160a01b031660009081526020819052604090205490565b6101b2610246366004610ea3565b6104de565b61012a610259366004610f22565b6104f3565b61014761051e565b61016b600081565b61012a61027c366004610ea3565b61052d565b61012a61028f366004610ea3565b6105a8565b61016b6000805160206110ce83398151915281565b6101b26102b7366004610f22565b6105b6565b61016b6102ca366004610f69565b6105d2565b60006001600160e01b03198216637965db0b60e01b148061030057506301ffc9a760e01b6001600160e01b03198316145b92915050565b60606003805461031590610f93565b80601f016020809104026020016040519081016040528092919081815260200182805461034190610f93565b801561038e5780601f106103635761010080835404028352916020019161038e565b820191906000526020600020905b81548152906001019060200180831161037157829003601f168201915b5050505050905090565b6000336103a68185856105fd565b5060019392505050565b6000336103be858285610721565b6103c985858561079b565b506001949350505050565b60009081526005602052604090206001015490565b6103f2826103d4565b6103fb8161092d565b6104058383610937565b505050565b6001600160a01b038116331461047f5760405162461bcd60e51b815260206004820152602f60248201527f416363657373436f6e74726f6c3a2063616e206f6e6c792072656e6f756e636560448201526e103937b632b9903337b91039b2b63360891b60648201526084015b60405180910390fd5b61048982826109bd565b5050565b6000336103a68185856104a083836105d2565b6104aa9190610fe4565b6105fd565b6000805160206110ce8339815191526104c78161092d565b6104058383610a24565b6104db3382610ad1565b50565b6104e9823383610721565b6104898282610ad1565b60009182526005602090815260408084206001600160a01b0393909316845291905290205460ff1690565b60606004805461031590610f93565b6000338161053b82866105d2565b90508381101561059b5760405162461bcd60e51b815260206004820152602560248201527f45524332303a2064656372656173656420616c6c6f77616e63652062656c6f77604482015264207a65726f60d81b6064820152608401610476565b6103c982868684036105fd565b6000336103a681858561079b565b6105bf826103d4565b6105c88161092d565b61040583836109bd565b6001600160a01b03918216600090815260016020908152604080832093909416825291909152205490565b6001600160a01b03831661065f5760405162461bcd60e51b8152602060048201526024808201527f45524332303a20617070726f76652066726f6d20746865207a65726f206164646044820152637265737360e01b6064820152608401610476565b6001600160a01b0382166106c05760405162461bcd60e51b815260206004820152602260248201527f45524332303a20617070726f766520746f20746865207a65726f206164647265604482015261737360f01b6064820152608401610476565b6001600160a01b0383811660008181526001602090815260408083209487168084529482529182902085905590518481527f8c5be1e5ebec7d5bd14f71427d1e84f3dd0314c0f7b2291e5b200ac8c7c3b925910160405180910390a3505050565b600061072d84846105d2565b9050600019811461079557818110156107885760405162461bcd60e51b815260206004820152601d60248201527f45524332303a20696e73756666696369656e7420616c6c6f77616e63650000006044820152606401610476565b61079584848484036105fd565b50505050565b6001600160a01b0383166107ff5760405162461bcd60e51b815260206004820152602560248201527f45524332303a207472616e736665722066726f6d20746865207a65726f206164604482015264647265737360d81b6064820152608401610476565b6001600160a01b0382166108615760405162461bcd60e51b815260206004820152602360248201527f45524332303a207472616e7366657220746f20746865207a65726f206164647260448201526265737360e81b6064820152608401610476565b6001600160a01b038316600090815260208190526040902054818110156108d95760405162461bcd60e51b815260206004820152602660248201527f45524332303a207472616e7366657220616d6f756e7420657863656564732062604482015265616c616e636560d01b6064820152608401610476565b6001600160a01b03848116600081815260208181526040808320878703905593871680835291849020805487019055925185815290926000805160206110ee833981519152910160405180910390a3610795565b6104db8133610bf1565b61094182826104f3565b6104895760008281526005602090815260408083206001600160a01b03851684529091529020805460ff191660011790556109793390565b6001600160a01b0316816001600160a01b0316837f2f8788117e7eff1d82e926ec794901d17c78024a50270940304540a733656f0d60405160405180910390a45050565b6109c782826104f3565b156104895760008281526005602090815260408083206001600160a01b0385168085529252808320805460ff1916905551339285917ff6391f5c32d9c69d2a47ea670b442974b53935d1edc7fd64eb21e047a839171b9190a45050565b6001600160a01b038216610a7a5760405162461bcd60e51b815260206004820152601f60248201527f45524332303a206d696e7420746f20746865207a65726f2061646472657373006044820152606401610476565b8060026000828254610a8c9190610fe4565b90915550506001600160a01b038216600081815260208181526040808320805486019055518481526000805160206110ee833981519152910160405180910390a35050565b6001600160a01b038216610b315760405162461bcd60e51b815260206004820152602160248201527f45524332303a206275726e2066726f6d20746865207a65726f206164647265736044820152607360f81b6064820152608401610476565b6001600160a01b03821660009081526020819052604090205481811015610ba55760405162461bcd60e51b815260206004820152602260248201527f45524332303a206275726e20616d6f756e7420657863656564732062616c616e604482015261636560f01b6064820152608401610476565b6001600160a01b0383166000818152602081815260408083208686039055600280548790039055518581529192916000805160206110ee833981519152910160405180910390a3505050565b610bfb82826104f3565b61048957610c0881610c4a565b610c13836020610c5c565b604051602001610c24929190610ffc565b60408051601f198184030181529082905262461bcd60e51b825261047691600401610e54565b60606103006001600160a01b03831660145b60606000610c6b83600261106b565b610c76906002610fe4565b6001600160401b03811115610c8d57610c8d61108a565b6040519080825280601f01601f191660200182016040528015610cb7576020820181803683370190505b509050600360fc1b81600081518110610cd257610cd26110a0565b60200101906001600160f81b031916908160001a905350600f60fb1b81600181518110610d0157610d016110a0565b60200101906001600160f81b031916908160001a9053506000610d2584600261106b565b610d30906001610fe4565b90505b6001811115610da8576f181899199a1a9b1b9c1cb0b131b232b360811b85600f1660108110610d6457610d646110a0565b1a60f81b828281518110610d7a57610d7a6110a0565b60200101906001600160f81b031916908160001a90535060049490941c93610da1816110b6565b9050610d33565b508315610df75760405162461bcd60e51b815260206004820181905260248201527f537472696e67733a20686578206c656e67746820696e73756666696369656e746044820152606401610476565b9392505050565b600060208284031215610e1057600080fd5b81356001600160e01b031981168114610df757600080fd5b60005b83811015610e43578181015183820152602001610e2b565b838111156107955750506000910152565b6020815260008251806020840152610e73816040850160208701610e28565b601f01601f19169190910160400192915050565b80356001600160a01b0381168114610e9e57600080fd5b919050565b60008060408385031215610eb657600080fd5b610ebf83610e87565b946020939093013593505050565b600080600060608486031215610ee257600080fd5b610eeb84610e87565b9250610ef960208501610e87565b9150604084013590509250925092565b600060208284031215610f1b57600080fd5b5035919050565b60008060408385031215610f3557600080fd5b82359150610f4560208401610e87565b90509250929050565b600060208284031215610f6057600080fd5b610df782610e87565b60008060408385031215610f7c57600080fd5b610f8583610e87565b9150610f4560208401610e87565b600181811c90821680610fa757607f821691505b60208210811415610fc857634e487b7160e01b600052602260045260246000fd5b50919050565b634e487b7160e01b600052601160045260246000fd5b60008219821115610ff757610ff7610fce565b500190565b76020b1b1b2b9b9a1b7b73a3937b61d1030b1b1b7bab73a1604d1b81526000835161102e816017850160208801610e28565b7001034b99036b4b9b9b4b733903937b6329607d1b601791840191820152835161105f816028840160208801610e28565b01602801949350505050565b600081600019048311821515161561108557611085610fce565b500290565b634e487b7160e01b600052604160045260246000fd5b634e487b7160e01b600052603260045260246000fd5b6000816110c5576110c5610fce565b50600019019056fe9f2df0fed2c77648de5860a4cc508cd0818c85b8b8a1ab4ceeef8d981c8956a6ddf252ad1be2c89b69c2b068fc378daa952ba7f163c4a11628f55a4df523b3efa2646970667358221220033124ea85c750523fcba81216a6e17722b2566cf63753b667e05c55b03baa9264736f6c63430008090033",
  "linkReferences": {},
  "deployedLinkReferences": {}
}